:100000000C9434000C9449000C9449000C94490061
:100010000C9449000C9449000C9449000C9449003C
:100020000C9449000C9449000C9449000C9449002C
:100030000C9449000C9449000C9449000C9449001C
:100040000C9449000C9449000C9449000C9449000C
:100050000C9449000C9449000C9449000C944900FC
:100060000C9449000C94490011241FBECFEFD8E036
:10007000DEBFCDBF11E0A0E0B1E0E0E8F2E002C0F9
:1000800005900D92A433B107D9F70E944B000C9450
:100090003E010C940000ECE7F0E08081806C8083EE
:1000A000AAE7B0E08C9187608C9380818860808320
:1000B0000E948F00CAE7D0E008E710E08881806CDA
:1000C0008883888186FDFDCFF801808191818E3003
:1000D000F1E09F0728F480E091E00E94A70011C0A2
:1000E000813621E0920728F482E191E00E94A70086
:1000F00008C0813EE1E09E0720F4865591400E94B1
:10010000BE008FE091E00E94A700FFEF29EF80E0A2
:10011000F15020408040E1F700C00000CFCF1092A6
:10012000C50088E08093C400E2ECF0E08081866046
:100130008083E1ECF0E08081886180830895E0ECC9
:10014000F0E0908195FFFDCF8093C6000895CF9396
:10015000DF93EC018881882331F021960E949F0073
:1001600089918111FBCFDF91CF910895E0ECF0E010
:1001700080818823ECF78091C6000895CF93DF93A8
:10018000EC018A30910568F09C01ADECBCEC0E945A
:100190002F019695879596958795969587950E94B8
:1001A000BE009E01ADECBCEC0E942F019695879598
:1001B00096958795969587959C01220F331F880FFA
:1001C000991F880F991F880F991F820F931F9E01F7
:1001D000281B390BC901805D0E949F00DF91CF91E0
:1001E0000895CF93DF93EC018031910540F0929513
:1001F00082958F7089279F7089270E94F100CF70A8
:10020000DD27CD5DDE4F88810E949F00DF91CF9179
:100210000895EF92FF920F931F93CF93DF937C018A
:10022000C7E0D0E001E010E0C8010C2E02C0880F4A
:10023000991F0A94E2F78E219F21892B21F081E3F7
:100240000E949F0003C080E30E949F00219760F7F7
:10025000DF91CF911F910F91FF90EF900895A29F92
:10026000B001B39FC001A39F700D811D1124911D8A
:10027000B29F700D811D1124911D0895F894FFCF38
:10028000202D34302043206F75206D6F696E730D03
:100290000A002032352043206F75206D6F696E7320
:1002A0000D0A003031323334353637383941424364
:0402B000444546007B
:00000001FF
