:100000000C9434000C943E000C943E000C943E0082
:100010000C943E000C943E000C943E000C943E0068
:100020000C943E000C943E000C943E000C943E0058
:100030000C943E000C943E000C943E000C943E0048
:100040000C943E000C943E000C943E000C943E0038
:100050000C943E000C943E000C943E000C943E0028
:100060000C943E000C943E0011241FBECFEFD8E04C
:10007000DEBFCDBF0E9458000C9467000C940000B6
:100080001092C50087E08093C400E1ECF0E080812D
:1000900088608083E2ECF0E0808186608083089550
:1000A000E0ECF0E0908195FFFDCF8093C6000895CD
:1000B0000E9440008AE50E9450002FEF83ED90E3FC
:1000C000215080409040E1F700C00000F3CFF89449
:0200D000FFCF60
:00000001FF
