:100000000C9434000C9446000C9446000C9446006A
:100010000C9446000C9446000C9446000C94460048
:100020000C9446000C9446000C9446000C94460038
:100030000C9446000C9446000C9446000C94460028
:100040000C9446000C9446000C9446000C94460018
:100050000C9446000C9446000C9446000C94460008
:100060000C9446000C94460011241FBECFEFD8E03C
:10007000DEBFCDBF21E0A0E0B1E001C01D92A13004
:10008000B207E1F70E9448000C94B0000C94000005
:1000900084B1876184B95A9A80E090E00E9496000A
:1000A00080930001811107C01092000160E080E0A0
:1000B00090E00E949E00D1E0C11119C04A9917C07A
:1000C000809100018F5F803118F48093000102C09D
:1000D000109200018FE39CE90197F1F700C0000046
:1000E0006091000180E090E00E949E00CD2F4A992F
:1000F000C0E08091000180FF02C0289A01C02898CA
:100100008091000181FF02C0299A01C02998809145
:10011000000182FF02C02A9A01C02A988091000142
:1001200083FF02C02C9AC8CF2C98C6CFF999FECF76
:1001300092BD81BDF89A992780B50895262FF99927
:10014000FECF92BD81BDF89A019700B4021639F036
:100150001FBA20BD0FB6F894FA9AF99A0FBE089507
:04016000F894FFCF41
:00000001FF
